:020000040800F2
:1000000000800120992B00086D2900087329000841
:10001000792900087F2900088529000800000000D0
:100020000000000000000000000000008B29000814
:100030009929000800000000A7290008B529000838
:10004000E92B0008E92B0008E92B0008E92B000840
:10005000E92B0008E92B0008E92B0008E92B000830
:10006000E92B0008E92B0008E92B0008E92B000820
:10007000E92B0008E92B0008E92B0008E92B000810
:10008000E92B0008E92B0008E92B0008000000001C
:10009000000000000000000000000000E92B000844
:1000A000E92B0008C1290008E92B0008E92B00080A
:1000B000E92B0008E92B0008E92B0008E92B0008D0
:1000C000E92B0008E92B0008E92B0008E92B0008C0
:1000D000E92B0008E92B0008E92B000800000000CC
:1000E000E92B0008E92B0008E92B000800000000BC
:1000F000000000000000000000000000E92B0008E4
:1001000000000000E92B0008E92B0008E92B00089B
:1001100000000000000000000000000000000000DF
:10012000E92B0008E92B0008E92B0008E92B00085F
:10013000E92B0008000000000000000000000000A3
:10014000000000000000000000000000E92B000893
:10015000E92B0008E92B0008E92B0008D529000845
:10016000E92B0008E92B0008000000000000000057
:10017000000000000000000000000000000000007F
:1001800000000000E92B0008000000000000000053
:04019000E92B00084F
:1001A00010B5054C237833B9044B13B10448AFF3B1
:1001B00000800123237010BD000200200000000019
:1001C00028B3000808B5034B1BB103490348AFF33C
:1001D000008008BD000000000402002028B30008D1
:1001E00010F8012B11F8013B012A28BF9A42F7D0E1
:1001F000D01A7047034613F8012B002AFBD1181AB6
:1002000001387047000000000000000000000000FE
:1002100001F0FF01102A2BDB10F0070F08D010F8B7
:10022000013B013A8B422DD010F0070F42B3F6D1BB
:10023000F0B441EA012141EA014122F007047FF0D4
:1002400000070023F0E80256083C85EA010586EA2B
:10025000010685FA47F5A3FA87F586FA47F6A5FA67
:1002600087F68EB9EED1F0BC01F0FF0102F0070273
:1002700032B110F8013B013A83EA010313B1F8D11E
:100280000020704701387047002D06BF35460338FF
:10029000073815F0010F07D1013015F4807F02BF38
:1002A000013015F4C03F0130F0BC0138704700BF89
:1002B00081F0004102E000BF83F0004330B54FEA17
:1002C00041044FEA430594EA050F08BF90EA020F84
:1002D0001FBF54EA000C55EA020C7FEA645C7FEA17
:1002E000655C00F0E2804FEA5454D4EB5555B8BF3A
:1002F0006D420CDD2C4480EA020281EA030382EAAB
:10030000000083EA010180EA020281EA0303362D3C
:1003100088BF30BD11F0004F4FEA01314FF4801C0F
:100320004CEA113102D0404261EB410113F0004F21
:100330004FEA03334CEA133302D0524263EB4303D8
:1003400094EA050F00F0A780A4F10104D5F1200E76
:100350000DDB02FA0EFC22FA05F2801841F10001D1
:1003600003FA0EF2801843FA05F359410EE0A5F1A5
:1003700020050EF1200E012A03FA0EFC28BF4CF0D6
:10038000020C43FA05F3C01851EBE37101F000458C
:1003900007D54FF0000EDCF1000C7EEB00006EEB99
:1003A0000101B1F5801F1BD3B1F5001F0CD3490823
:1003B0005FEA30004FEA3C0C04F101044FEA44527A
:1003C00012F5800F80F09A80BCF1004F08BF5FEA01
:1003D000500C50F1000041EB045141EA050130BDE1
:1003E0005FEA4C0C404141EB0101013C28BFB1F5F3
:1003F000801FE9D291F0000F04BF01460020B1FA3E
:1004000081F308BF2033A3F10B03B3F120020CDA10
:100410000C3208DD02F1140CC2F10C0201FA0CF0EE
:1004200021FA02F10CE002F11402D8BFC2F1200C53
:1004300001FA02F120FA0CFCDCBF41EA0C01904009
:10044000E41AA2BF01EB0451294330BD6FEA040452
:100450001F3C1CDA0C340EDC04F11404C4F120023D
:1004600020FA04F001FA02F340EA030021FA04F34F
:1004700045EA030130BDC4F10C04C4F1200220FAA6
:1004800002F001FA04F340EA0300294630BD21FAE4
:1004900004F0294630BD94F0000F83F4801306BFAA
:1004A00081F480110134013D4EE77FEA645C18BF9E
:1004B0007FEA655C29D094EA050F08BF90EA020F35
:1004C00005D054EA000C04BF1946104630BD91EA2D
:1004D000030F1EBF0021002030BD5FEA545C05D130
:1004E0004000494128BF41F0004130BD14F580046F
:1004F0003CBF01F5801130BD01F0004545F0FE41E3
:1005000041F470014FF0000030BD7FEA645C1ABF17
:10051000194610467FEA655C1CBF0B46024650EA4E
:10052000013406BF52EA033591EA030F41F400217A
:1005300030BD00BF90F0000F04BF0021704730B500
:100540004FF4806404F132044FF000054FF00001D5
:1005500050E700BF90F0000F04BF0021704730B596
:100560004FF4806404F1320410F0004548BF40426B
:100570004FF000013EE700BF42004FEAE2014FEAC0
:1005800031014FEA02701FBF12F07F4393F07F4F9B
:1005900081F06051704732F07F4208BF704793F09E
:1005A0007F4F04BF41F40021704730B54FF46074B1
:1005B00001F0004521F000411CE700BF50EA0102B4
:1005C00008BF704730B54FF000050AE050EA01025D
:1005D00008BF704730B511F0004502D5404261EBCD
:1005E00041014FF4806404F132045FEA915C3FF40E
:1005F000D8AE4FF003025FEADC0C18BF03325FEAAB
:10060000DC0C18BF033202EBDC02C2F1200300FA5B
:1006100003FC20FA02F001FA03FE40EA0E0021FA80
:1006200002F11444BDE600BF70B54FF0FF0C4CF46E
:10063000E06C1CEA11541DBF1CEA135594EA0C0F20
:1006400095EA0C0F00F0DEF82C4481EA030621EA5B
:100650004C5123EA4C5350EA013518BF52EA033596
:1006600041F4801143F4801338D0A0FB02CE4FF048
:100670000005E1FB02E506F00042E0FB03E54FF078
:100680000006E1FB03569CF0000F18BF4EF0010E70
:10069000A4F1FF04B6F5007F64F5407404D25FEA6C
:1006A0004E0E6D4146EB060642EAC62141EA55511F
:1006B0004FEAC52040EA5E504FEACE2EB4F1FD0C61
:1006C00088BFBCF5E06F1ED8BEF1004F08BF5FEADF
:1006D000500E50F1000041EB045170BD06F0004691
:1006E00046EA010140EA020081EA0301B4EB5C043E
:1006F000C2BFD4EB0C0541EA045170BD41F4801136
:100700004FF0000E013C00F3AB8014F1360FDEBF5A
:10071000002001F0004170BDC4F10004203C35DA36
:100720000C341BDC04F11404C4F1200500FA05F3B9
:1007300020FA04F001FA05F240EA020001F000425A
:1007400021F0004110EBD37021FA04F642EB0601D0
:100750005EEA430E08BF20EAD37070BDC4F10C04FA
:10076000C4F1200500FA04F320FA05F001FA04F2BE
:1007700040EA020001F0004110EBD37041F10001AA
:100780005EEA430E08BF20EAD37070BDC4F12005B5
:1007900000FA05F24EEA020E20FA04F301FA05F21D
:1007A00043EA020321FA04F001F0004121FA04F2C5
:1007B00020EA020000EBD3705EEA430E08BF20EA95
:1007C000D37070BD94F0000F0FD101F000464000CF
:1007D00041EB010111F4801F08BF013CF7D041EA51
:1007E000060195F0000F18BF704703F00046520055
:1007F00043EB030313F4801F08BF013DF7D043EA26
:100800000603704794EA0C0F0CEA135518BF95EADB
:100810000C0F0CD050EA410618BF52EA4306D1D162
:1008200081EA030101F000414FF0000070BD50EA81
:10083000410606BF1046194652EA430619D094EA0B
:100840000C0F02D150EA013613D195EA0C0F05D1F5
:1008500052EA03361CBF104619460AD181EA030149
:1008600001F0004141F0FE4141F470014FF0000001
:1008700070BD41F0FE4141F4780170BD70B54FF09C
:10088000FF0C4CF4E06C1CEA11541DBF1CEA13551C
:1008900094EA0C0F95EA0C0F00F0A7F8A4EB0504FE
:1008A00081EA030E52EA03354FEA013100F08880F5
:1008B0004FEA03334FF0805545EA131343EA1263BE
:1008C0004FEA022245EA111545EA10654FEA002673
:1008D0000EF000419D4208BF964244F1FD0404F52C
:1008E000407402D25B084FEA3202B61A65EB030588
:1008F0005B084FEA32024FF480104FF4002CB6EB45
:10090000020E75EB030E22BFB61A754640EA0C00C4
:100910005B084FEA3202B6EB020E75EB030E22BF04
:10092000B61A754640EA5C005B084FEA3202B6EB45
:10093000020E75EB030E22BFB61A754640EA9C0004
:100940005B084FEA3202B6EB020E75EB030E22BFD4
:10095000B61A754640EADC0055EA060E18D04FEA92
:10096000051545EA16754FEA06164FEAC30343EA32
:1009700052734FEAC2025FEA1C1CC0D111F4801FFF
:100980000BD141EA00014FF000004FF0004CB6E7F8
:1009900011F4801F04BF01430020B4F1FD0C88BF97
:1009A000BCF5E06F3FF6AFAEB5EB030C04BFB6EBA2
:1009B000020C5FEA500C50F1000041EB045170BD95
:1009C0000EF0004E4EEA113114EB5C04C2BFD4EBC2
:1009D0000C0541EA045170BD41F480114FF0000E46
:1009E000013C90E645EA060E8DE60CEA135594EAC2
:1009F0000C0F08BF95EA0C0F3FF43BAF94EA0C0FC5
:100A00000AD150EA01347FF434AF95EA0C0F7FF439
:100A100025AF104619462CE795EA0C0F06D152EA8D
:100A200003353FF4FDAE1046194622E750EA410671
:100A300018BF52EA43067FF4C5AE50EA41047FF482
:100A40000DAF52EA43057FF4EBAE12E74FF0FF3CE7
:100A500006E000BF4FF0010C02E000BF4FF0010CB8
:100A60004DF804CD4FEA410C7FEA6C5C4FEA430C31
:100A700018BF7FEA6C5C1BD001B050EA410C0CBF80
:100A800052EA430C91EA030F02BF90EA020F0020E2
:100A9000704710F1000F91EA030F58BF994208BF49
:100AA00090422CBFD8176FEAE37040F00100704706
:100AB0004FEA410C7FEA6C5C02D150EA013C07D15D
:100AC0004FEA430C7FEA6C5CD6D152EA033CD3D0A8
:100AD0005DF8040B704700BF8446104662468C46A2
:100AE0001946634600E000BF01B5FFF7B7FF0028D5
:100AF00048BF10F1000F01BD4DF808EDFFF7F4FFFE
:100B00000CBF012000205DF808FB00BF4DF808ED88
:100B1000FFF7EAFF34BF012000205DF808FB00BFAB
:100B20004DF808EDFFF7E0FF94BF012000205DF8CD
:100B300008FB00BF4DF808EDFFF7CEFF94BF012082
:100B400000205DF808FB00BF4DF808EDFFF7C4FF7B
:100B500034BF012000205DF808FB00BF4FEA410CC4
:100B60007FEA6C5C02D150EA013C0AD14FEA430CA7
:100B70007FEA6C5C02D152EA033C02D14FF00000E4
:100B800070474FF0010070474FEA410212F5001222
:100B900015D211D56FF47873B3EB625212D94FEAC4
:100BA000C12343F0004343EA505311F0004F23FAAE
:100BB00002F018BF404270474FF00000704750EA03
:100BC000013005D111F0004008BF6FF000407047C0
:100BD0004FF00000704700BF4A0011D212F500121A
:100BE00011D20DD56FF47873B3EB62520ED44FEA85
:100BF000C12343F0004343EA505323FA02F0704705
:100C00004FF00000704750EA013002D14FF0FF3042
:100C100070474FF0000070474FEA4102B2F1E043E5
:100C200024BFB3F5001CDCF1FE5C0DD901F0004CD3
:100C30004FEAC0024CEA5070B2F1004F40EB830023
:100C400008BF20F00100704711F0804F21D113F14F
:100C50003872BCBF01F00040704741F480114FEA88
:100C60005252C2F11802C2F1200C10FA0CF320FA11
:100C700002F018BF40F001004FEAC1234FEAD3232E
:100C800003FA0CFC40EA0C0023FA02F34FEA430398
:100C9000CCE77FEA625307D150EA01331EBF4FF021
:100CA000FE4040F44000704701F0004040F0FE403C
:100CB00040F40000704700BF53B94AB9002908BF8B
:100CC00000281CBF4FF0FF314FF0FF3000F0A4B9F7
:100CD000ADF1080C6DE904CE00F03CF8DDF804E05D
:100CE000DDE9022304B0704738B500220023044632
:100CF0000D46FFF70BFF28B920462946BDE83840CE
:100D000000F00AB8204605F1004100F005F8404225
:100D100061EB410138BD00BFD0B50C4B0022064647
:100D20000F46FFF781FCFFF757FF0446FFF702FC71
:100D3000074B0022FFF778FC02460B463046394647
:100D4000FFF7BAFAFFF748FF2146D0BD0000F03D9B
:100D50000000F0412DE9F047089D04468C46002B29
:100D600040F083808A42174647D9B2FA82F242B1F4
:100D7000C2F1200024FA00F09140974040EA010CB3
:100D800094404FEA1748230CBCFBF8F61FFA87FE85
:100D900008FB16C143EA014306FB0EF1994209D94B
:100DA000FB1806F1FF3080F01981994240F216815C
:100DB000023E3B445B1AA4B2B3FBF8F008FB1033CD
:100DC00044EA034400FB0EFEA64509D93C1900F194
:100DD000FF3380F00581A64540F2028102383C4491
:100DE00040EA0640A4EB0E0400261DB1D4400023C7
:100DF000C5E900433146BDE8F08702B9FFDEB2FA2B
:100E000082F2002A50D1CB1B4FEA174E1FFA87F807
:100E10000126B3FBFEFC210C0EFB1C3341EA03410F
:100E200008FB0CF38B4207D979180CF1FF3002D282
:100E30008B4200F2E9808446C91AA3B2B1FBFEF0EE
:100E40000EFB101143EA014408FB00F8A04507D946
:100E50003C1900F1FF3302D2A04500F2D9801846B8
:100E6000A4EB080440EA0C40BFE78B4209D9002DEF
:100E700000F0B1800026C5E9000130463146BDE8EA
:100E8000F087B3FA83F6002E4AD18B4202D3824216
:100E900000F2B880841A61EB030101208C46002D1A
:100EA000A8D0C5E9004CA5E7C2F1200320FA03F65B
:100EB000974001FA02F04FEA174ED9403043030C35
:100EC000B1FBFEF61FFA87F80EFB161143EA014349
:100ED00006FB08F1994204FA02F409D9FB1806F15D
:100EE000FF3C80F08D80994240F28A80023E3B4474
:100EF0005B1A81B2B3FBFEF00EFB103341EA0341F3
:100F000000FB08F38B4207D9791800F1FF3C73D23C
:100F10008B4271D902383944CB1A40EA064678E749
:100F2000C6F1200C03FA06F422FA0CF31C4320FA53
:100F30000CF701FA06F34FEA144E21FA0CF11F43A5
:100F40003B0CB1FBFEF91FFA84F80EFB191143EAC2
:100F5000014109FB08FA8A4502FA06F200FA06F393
:100F600008D9611809F1FF3048D28A4546D9A9F15C
:100F700002092144A1EB0A01BFB2B1FBFEF00EFB56
:100F8000101147EA014700FB08F8B84507D9E719EF
:100F900000F1FF312ED2B8452CD90238274440EA5F
:100FA0000940A7EB0807A0FB02894F45C646494602
:100FB0001AD317D05DB1B3EB0E0267EB010707FA46
:100FC0000CFCF2404CEA0202F740C5E9002700267B
:100FD0003146BDE8F0872E4628460BE70646E9E68F
:100FE0001846FDE64345E5D2B8EB020E69EB040175
:100FF0000138DFE70846D2E760468DE78146B9E76A
:10100000664675E730464AE7ACF1020C394413E70F
:1010100002383C4424E700BF704700BF80B586B06B
:1010200000AF786007F1080300221A605A609A60E6
:10103000DA607B68BB600123FB6002233B6107F140
:1010400008031946054802F02BF80346002B01D08F
:1010500001F0FCFA00BF1837BD4680BD8C030020AC
:1010600080B483B000AF78600B4A7B6813441B7870
:10107000022B01D1582308E0074A7B6813441B78F0
:10108000012B01D1412300E0442318460C37BD4613
:101090005DF8047B704700BF7002002080B582B00D
:1010A00000AF684B1B78FB71FB79012B02D0FB79F9
:1010B000022B01D1012300E00023DBB21A464FF4DA
:1010C0000061614802F04AFDFB79012B02D0FB79F7
:1010D000002B01D1012300E00023DBB21A464FF4BC
:1010E0008061594802F03AFD564B5B78FB71FB7901
:1010F000012B02D0FB79022B01D1012300E0002358
:10110000DBB21A461021504802F028FDFB79012B72
:1011100002D0FB79002B01D1012300E00023DBB2D8
:101120001A462021484802F019FD464B9B78FB7176
:10113000FB79012B02D0FB79022B01D1012300E0C6
:101140000023DBB21A460121404802F007FDFB797B
:10115000012B02D0FB79002B01D1012300E00023F9
:10116000DBB21A460221394802F0F8FC354BDB7835
:10117000FB71FB79012B02D0FB79022B01D10123FA
:1011800000E00023DBB21A460421304802F0E6FCFE
:10119000FB79012B02D0FB79002B01D1012300E068
:1011A0000023DBB21A464FF48061284802F0D6FCD7
:1011B000244B1B79FB71FB79012B02D0FB79022BAD
:1011C00001D1012300E00023DBB21A464FF4805125
:1011D0001F4802F0C3FCFB79012B02D0FB79002BE6
:1011E00001D1012300E00023DBB21A464FF4006175
:1011F000174802F0B3FC134B5B79FB71FB79012BB1
:1012000002D0FB79022B01D1012300E00023DBB2E5
:101210001A464FF480610E4802F0A0FCFB79012BC6
:1012200002D0FB79002B01D1012300E00023DBB2C7
:101230001A464FF40071064802F090FC00BF0837D0
:10124000BD4680BD7002002000080240000402403C
:101250000000024080B582B000AFFE23FB71012385
:10126000BB7100237B71F91D4FF47A730122114881
:1012700004F041F8791D4FF47A7301220D4804F00F
:101280003AF8642001F024FDF91D4FF47A7301222D
:10129000084804F030F8B91D4FF47A73012205486C
:1012A00004F029F8642001F013FD00BF0837BD46A3
:1012B00080BD00BFD403002080B584B000AF78604B
:1012C0003960FE23FB73144BBB6007F10F014FF431
:1012D0007A730122114804F00EF807F108023B6806
:1012E000D1184FF47A7301220C4804F004F86420FA
:1012F00001F0EEFC7868FEF77DFF03469AB24FF4EA
:101300007A737968054803F0F6FF962001F0E0FC57
:1013100000BF1037BD4680BD80C094D4D4030020E8
:1013200080B584B000AF78607868FEF763FF03464D
:10133000BB60BB68FB6007E0FB687A68134420224F
:101340001A70FB680133FB60FB68132BF4DD7B68CC
:10135000143300221A7000BF1037BD4680BD000054
:10136000F0B5A1B006AF9E4B1B78002B79D09D4BFA
:101370001A689D4B19689D4B1B6807F14800009344
:101380000B469B4905F0E4FD0020FFF769FE03468C
:101390001D460120FFF764FE03461E460220FFF7AC
:1013A0005FFE03461C460320FFF75AFE034607F183
:1013B00030000193009433462A468E4905F0C8FD5B
:1013C0000420FFF74DFE03461C460520FFF748FEAC
:1013D000034607F118002246874905F0B9FD874BFF
:1013E0001B78002B01D0412200E044223B46844977
:1013F000184605F0ADFD00237B6611E03B4618461C
:10140000FEF7F8FE02463B4698187E4A7B6E32F99C
:1014100013301A467C4905F09BFD7B6E01337B66D9
:101420007A4BB3F900301A467B6E9342E6DB002319
:101430003B660DE03B461846FEF7DCFE02463B46A7
:1014400013447349184605F083FD3B6E01333B6638
:101450006E4BB3F90030C3F104033A6E9A42E9DBF4
:1014600056E0604B1A68604B1968604B1B6869480E
:1014700000880446674840880546664880880646D6
:101480006448C08807F1480C0490039602950194C3
:1014900000930B466049604605F05AFD0020FFF7B7
:1014A000DFFD03461D460120FFF7DAFD03461E4619
:1014B0000220FFF7D5FD03461C460320FFF7D0FDB1
:1014C000034607F130000193009433462A46494908
:1014D00005F03EFD0420FFF7C3FD03461C46052032
:1014E000FFF7BEFD034607F118002246424905F00A
:1014F0002FFD4A4B1B881A46494B1B881946494BFE
:10150000B3F90030384600930B46474905F020FDFB
:1015100007F148031846FFF703FF07F130031846A9
:10152000FFF7FEFE07F118031846FFF7F9FE3B46EA
:101530001846FFF7F5FE07F1480319463B48FEF74A
:101540004FFE0346002B0BD007F14803002118463D
:10155000FFF7B2FE07F148031946344805F089FD4C
:1015600007F1300319463248FEF73AFE0346002BD6
:101570000BD007F1300301211846FFF79DFE07F15C
:10158000300319462A4805F074FD07F1180319467F
:101590002848FEF725FE0346002B0BD007F1180361
:1015A00002211846FFF788FE07F118031946214863
:1015B00005F05FFD3B4619461F48FEF711FE034646
:1015C000002B09D03B4603211846FFF775FE3B462A
:1015D0001946194805F04DFD00BF6C37BD46F0BDFA
:1015E00064020020180000201C000020840200205B
:1015F00040B3000858B3000870B30008060000208C
:101600007CB300087802002088B300088002002024
:101610008CB300081000002090B3000800000020E8
:101620000200002004000020B4B30008880200205B
:10163000A0020020B8020020D002002080B584B0B3
:1016400000AF0023FB600023BB608AE0BB689BB255
:101650001A46520013449AB25E4B1B8813449BB245
:101660003B805D4ABB6852F823205C49BB6831F877
:1016700013301946104602F059FA0346002B5DD08C
:10168000574B1B881A46B7F9003042FA03F303F0B0
:101690000103002B62D1B7F90030012202FA03F3F3
:1016A0001AB24F4B1B881BB213431BB29AB24C4B5E
:1016B0001A80B7F900304B4A32F813204A4B1B8886
:1016C00019464A4B33F811309A4206D1484B1B88D1
:1016D00001339AB2464B1A8002E0454B00221A8031
:1016E000B7F900303F4A32F81310424BB3F90020EB
:1016F00093B201339BB218B23E4B188009B23E4BF5
:1017000023F81210384B1B8801339AB2364B1A80DB
:10171000354B1B88042B21D1354B1B88042B01D161
:10172000022300E00123FB602F4B00221A80304B84
:1017300000221A802F4B00221A800FE0B7F90030E8
:10174000012202FA03F31BB2DB431AB2244B1B88BB
:101750001BB213401BB29AB2214B1A80BB680133F3
:10176000BB60BB68032B7FF771AF1A4B1B885A1CF9
:10177000224B83FB0231D317C91A0B465B000B4483
:10178000D11A8AB2134B1A8000237B6019E0114BE7
:101790001B881A467B6893420CBF01230023DBB2EF
:1017A0007B80174A7B6852F82300164A7B6832F820
:1017B00013307A88D2B2194602F0D0F97B6801332F
:1017C0007B607B68022BE2DDFB6818461037BD4664
:1017D00080BD00BFE602002030B4000840B400081D
:1017E000E80200205CB40008EA020020100000209B
:1017F000EC0200208002002078020020565555554A
:1018000048B4000854B4000880B582B000AF034665
:101810003960FB801346BB80B7F90630134AD35CAE
:10182000022B1FD0B7F90630114AD35C002B13D01E
:10183000104B1B78002B09D0BB881946386802F082
:1018400075F90346002B01D1022100E00121B7F90F
:101850000630064AD15406E0B7F90630034A0021A3
:10186000D15400E000BF0837BD4680BD70020020A3
:10187000080000200600002080B500AF01221049BA
:101880000020FFF7C1FF02220D490120FFF7BCFF36
:1018900004220B490220FFF7B7FF08220849032062
:1018A000FFF7B2FF4FF4007206490420FFF7ACFFC8
:1018B0004FF4807203490520FFF7A6FF00BF80BDEB
:1018C000000802400004024080B58AB002AF786090
:1018D0007B68002B03D07B681B78002B01D1002391
:1018E0000EE1894B1B78002B27D088497868FEF7DA
:1018F00077FC0346002B1ED1854B1B78002B1AD199
:10190000814B00221A70834B01221A7000224FF47F
:101910008051814802F022F9002240217F4802F0E4
:101920001DF9002210217D4802F018F90022202123
:101930007A4802F013F90023E2E079497868FEF76B
:101940004FFC0346002B09D16F4B01221A70704BDC
:1019500000221A706F4B01221A70D0E007F11F03AA
:1019600007F118026F49786805F012FB0346022B55
:101970001AD1BB69002B40F3C280BB69042B00F372
:10198000BE80FB7F642B05D1BB69013B664A002109
:10199000D154B4E0FB7F612B40F0B180BB69013BC7
:1019A000614A0121D154AAE007F118031A465F49A0
:1019B000786805F0EDFA0346012B0CD1BB69002BCA
:1019C00040F39D80BB69042B00F39980BB699AB2F8
:1019D000574B1A8093E007F118031A465549786867
:1019E00005F0D6FA0346012B0CD1BB69002B40F35E
:1019F0008680BB69042B00F38280BB699AB24E4B90
:101A00001A807CE007F11F031A464C49786805F0FC
:101A1000BFFA0346012B0DD1FB7F642B03D1424B50
:101A200000221A716BE0FB7F612B68D13E4B0122D3
:101A30001A7164E007F11F031A464149786805F0FE
:101A4000A7FA0346012B0DD1FB7F642B03D1364B44
:101A500000225A7153E0FB7F612B50D1324B01229F
:101A60005A714CE007F118031A463649786805F0B8
:101A70008FFA0346012B07D1BB69002B3FDBBB6903
:101A80001AB2314B1A803AE007F1140107F118023B
:101A900007F1100300930B462C49786805F078FA9B
:101AA0000346032B09D1BB69294A13607B69294A84
:101AB00013603B69284A136021E007F1140107F124
:101AC000180207F10C03019307F1100300930B4672
:101AD0002249786805F05CFA0346042B0FD1BB69F4
:101AE0009AB21F4B1A807B699AB21D4B5A803B6990
:101AF0009AB21B4B9A80FB689AB2194BDA8000238A
:101B000018462037BD4680BD64020020C8B30008D7
:101B10006502002006000020000802400004024088
:101B2000D0B30008D4B3000808000020DCB30008DC
:101B300000000020E4B3000802000020ECB300081D
:101B4000F4B30008FCB300080400002004B400084B
:101B5000180000201C0000208402002014B400089B
:101B6000100000200000000080B59AB000AF0023F4
:101B70007B6600233B660023FB65002387F85B3010
:101B800001F034F800F022FA00F01CFC00F0C6FB73
:101B900000F01EFB00F07AFA00F0EAFB00F0CAFA4F
:101BA00000F070FB01229A499A4803F036FC9A48EB
:101BB00002F026FD0023A7F8583000237B65974BE1
:101BC00000221A80964802F0C1FCFFF743FB944BB9
:101BD0001B685B6A7B657B6D7B667B6E0A333B664D
:101BE0007B6E1433FB658E4B1B685B6AFB87FA8F39
:101BF000B7F858309A4209D9FA8FB7F85830D31A43
:101C0000BB87BB8F7A6D13447B6508E0FA8FB7F80A
:101C10005830D31ABB87BB8F7A6D13447B65FB8F1B
:101C2000A7F858307F4B1B78002B00F067817A6D46
:101C30007B6E9A4246DB7B6D0A337B66FFF7FEFCC8
:101C4000B863BB6B022B3DD1774B1B78002B2FD099
:101C5000754B00221A70754B00221A70744B0022CB
:101C60001A6000224FF48051724801F077FF724BE6
:101C700000221A6000224021704801F06FFF00230B
:101C80003B6511E06E4A3B6D13441B78002B14BF7B
:101C900001230023DBB219466A4A3B6D13440A460E
:101CA0001A703B6D01333B653B6D052BEADD09E0A6
:101CB0005E4B1B78002B0CBF01230023DBB21A46BE
:101CC0005A4B1A707A6D3B6E9A4235DB7B6D32331C
:101CD0003B66FFF7D1FDFFF7E1F9002387F84F30AE
:101CE0000023BB640BE0574ABB6C13441B78022BE8
:101CF00002D1012387F84F30BB6C0133BB64BB6C4E
:101D0000052BF0DD484B1B78002B15D197F84F3091
:101D1000002B11D0444B01221A70454B00221A604F
:101D2000494BB3F900301A464FF47A7303FB02F2C1
:101D30007B6D1344404A13607A6DFB6D9A42C0F28A
:101D4000B9807B6D6433FB6597F85B30002B01D164
:101D5000062300E007237B63786BFFF75FF93B48BE
:101D600001F01EF84FF0FF31384801F000F9374814
:101D700001F088F93863354801F0C6F83B6B07EE8F
:101D8000903AF8EE677A17EE900AFEF7F5FB1CA37F
:101D9000D3E90023FEF772FD02460B4610461946B2
:101DA00019A3D3E90023FEF73FFC02460B46104679
:101DB0001946FEF731FF0346FB623B4600221A60DC
:101DC0005A609A60DA601A615A61214B3B60214B7C
:101DD0007B60214BBB60214BFB60184BBB6297F8CB
:101DE0005B30002B01D1202300E01023FB8497F807
:101DF0005B30002B36D11A4B1B8835E0AFF30080E7
:101E00000000000000E06F406666666666660A4095
:101E10001C020020D40300204403002060020020A4
:101E20001804002064020020650200200600002043
:101E300068020020000802406C02002000040240FA
:101E40000800002070020020040000208C03002005
:101E50000C3E314048DEB73F8EC87B3F8926403F6D
:101E6000000000204F4B1B88BB84BB8C013B9B00B8
:101E700007F168021344683B1B683B6297ED0B7ADD
:101E8000D7ED087AB4EEE77AF1EE10FAACBF012391
:101E90000023DBB21A46FB8C1946B86A01F05EFEDD
:101EA00097F85B300133002B03F00103B8BF5B42AE
:101EB00087F85B303C4B1B78002B23D03B4B1B68D7
:101EC0007A6D9A4208DB7B6D6433384A13604FF4B5
:101ED0008051374801F05BFE364B1B687A6D9A42A1
:101EE00010DB344B1B68002B0CDD012240213248F3
:101EF00001F034FE2F4B00221A6003E0FFF7BCFC18
:101F0000FFF7CCF82D4B1B88002B44D02C4B1B88A3
:101F1000FB612A4B1B88013B9AB2284B1A80002395
:101F20007B6418E0274A7B6C13441B78FB76FB7EAE
:101F30003B2B08D1244A7B6C134400221A702248A0
:101F4000FFF7C2FC0BE0204A7B6C1344FA7E1A7048
:101F50007B6C01337B647A6CFB699A42E2DB7B6CBD
:101F600001337B6400233B640BE03B6C5A1C3A64F6
:101F700014497A6C0A441178124AD1547B6C0133AB
:101F80007B640F4B1B881A467B6C9342EDDB3B6CEA
:101F90009AB20B4B1A80FFF7E3F9052000F098FE88
:101FA00021E600BF02000020650200206802002038
:101FB000000802406C02002000040240620200207F
:101FC00060020020200200204002002080B594B072
:101FD00000AF07F1200330220021184604F030F949
:101FE00007F10C0300221A605A609A60DA601A61E5
:101FF0000023BB60234B1B6C224A43F080531364C5
:10200000204B1B6C03F08053BB60BB6800237B60DC
:102010001D4B1B6823F440431B4A43F400431360E9
:10202000194B1B6803F440437B607B6802233B62CF
:102030000123FB6210233B630023BB6307F12003F2
:10204000184601F0BFFD0346002B01D000F0FEFA58
:102050000F23FB6000233B6100237B610023BB61F6
:102060000023FB6107F10C030021184602F022F85F
:102070000346002B01D000F0E9FA00BF5037BD46FF
:1020800080BD00BF003802400070004080B584B0C1
:1020900000AF3B4600221A605A609A60DA60224B19
:1020A000224A1A60204B4FF440325A601E4B4FF0C8
:1020B00000729A601C4B00221A611B4B00221A7698
:1020C000194B002283F82020174B0022DA62164BAE
:1020D000174A9A62144B0022DA60134B0122DA612C
:1020E000114B002283F830200F4B01225A610E4819
:1020F00000F012FE0346002B01D000F0A7FA0623E1
:102100003B6001237B600223BB603B4619460648C7
:1021100000F0C6FF0346002B01D000F097FA00BF85
:102120001037BD4680BD00BF8C0300200020014059
:102130000100000F80B586B000AF07F10803002250
:102140001A605A609A60DA603B4600221A605A6050
:102150001E4B4FF080421A601C4B43F67F625A6060
:102160001A4B00229A60194B4FF0FF32DA60174B7E
:1021700000221A61154B00229A61144802F096F968
:102180000346002B01D000F061FA4FF48053BB608E
:1021900007F1080319460D4802F048FC0346002BDE
:1021A00001D000F053FA00233B6000237B603B46E4
:1021B0001946064802F0D0FF0346002B01D000F07C
:1021C00045FA00BF1837BD4680BD00BF1804002087
:1021D00080B58AB000AF07F1200300221A605A6070
:1021E0003B1D00221A605A609A60DA601A615A61D7
:1021F0009A61224B224A1A60204B0F225A601F4BD1
:1022000000229A601D4B40F2E732DA601B4B00223D
:102210001A611A4B80229A61184802F053FA034659
:10222000002B01D000F012FA00233B6200237B62F6
:1022300007F120031946114802F08EFF0346002BD8
:1022400001D000F003FA30237B600023BB60002341
:10225000FB6000237B613B1D04221946074802F006
:1022600089FB0346002B01D000F0F0F9034800F091
:10227000BDFA00BF2837BD4680BD00BFFC0200206C
:102280000008004080B588B000AF3B1D00221A60F6
:102290005A609A60DA601A615A619A611D4B1E4A4F
:1022A0001A601C4B43F67F625A601A4B00229A60F8
:1022B000184B40F2E732DA60164B00221A61154BD8
:1022C00080229A61134802F0F1F80346002B01D0F6
:1022D00000F0BCF90F4802F0F5F90346002B01D0DD
:1022E00000F0B4F900237B600023BB600023FB6097
:1022F00000237B613B1D00221946064802F03AFB91
:102300000346002B01D000F0A1F900BF2037BD46E5
:1023100080BD00BF440300200044014080B500AFF1
:10232000114B124A1A60104B4FF4E1325A600E4BB7
:1023300000229A600C4B0022DA600B4B00221A61DB
:10234000094B0C225A61084B00229A61064B00226D
:10235000DA61054802F082FF0346002B01D000F04D
:1023600075F900BF80BD00BF60040020004400403C
:1023700080B500AF114B124A1A60104B4FF4165241
:102380005A600E4B00229A600C4B0022DA600B4B15
:1023900000221A61094B0C225A61084B00229A61F3
:1023A000064B0022DA61054802F058FF0346002B75
:1023B00001D000F04BF900BF80BD00BFD403002066
:1023C0000014014080B58AB000AF07F11403002269
:1023D0001A605A609A60DA601A6100233B61504BC0
:1023E0001B6B4F4A43F0040313634D4B1B6B03F00D
:1023F00004033B613B690023FB60494B1B6B484A6C
:1024000043F080031363464B1B6B03F08003FB60B8
:10241000FB680023BB60424B1B6B414A43F0010346
:1024200013633F4B1B6B03F00103BB60BB680023CE
:102430007B603B4B1B6B3A4A43F002031363384B00
:102440001B6B03F002037B607B68002249F620715E
:10245000344801F083FB002241F63061324801F03C
:102460007DFB002240F27741304801F077FB4FF4CA
:1024700000537B614FF40413BB610023FB6107F140
:1024800014031946284801F0CDF90F237B6100237E
:10249000BB610023FB6107F114031946224801F0D8
:1024A000C1F949F620737B610123BB610023FB6105
:1024B00000233B6207F1140319461A4801F0B2F9F0
:1024C00041F630637B610123BB610023FB61002384
:1024D0003B6207F114031946134801F0A3F940F2D7
:1024E00077437B610123BB610023FB6100233B62D7
:1024F00007F1140319460D4801F094F94FF47343A2
:102500007B610023BB610023FB6107F114031946C3
:10251000064801F087F900BF2837BD4680BD00BFDF
:10252000003802400000024000080240000402405F
:1025300080B584B000AF78607B681B681C4A93420A
:1025400031D101221B491C4802F067FF194B1B784F
:102550000A2B28D0174B1B780D2B24D0154B1B783A
:102560003B2B0CBF01230023DBB2FB60FB68002B7D
:1025700005D0124B1B8801339AB2104B1A80104BB6
:102580001B881C2B02D9FB68002B0CD00C4B1B8822
:102590001A46084B19780B4B9954094B1B88013389
:1025A0009AB2074B1A8000BF1037BD4680BD00BFEE
:1025B000001401401C020020D4030020620200200D
:1025C000600200202002002080B483B000AF786059
:1025D0007B681B68194A934229D1194B1B68013348
:1025E000174A1360164B1B683B2B09DD154B1B6804
:1025F0000133144A1360124B1B683C3B104A1360B2
:10260000104B1B683B2B09DD0F4B1B6801330E4A37
:1026100013600C4B1B683C3B0A4A13600A4B1B6857
:10262000172B04DD084B1B68183B074A136000BFDB
:102630000C37BD465DF8047B704700BF0044014085
:10264000840200201C0000201800002080B400AF8D
:1026500072B600BFFEE7000080B582B000AF002375
:102660007B60104B5B6C0F4A43F4804353640D4B0B
:102670005B6C03F480437B607B6800233B60094B09
:102680001B6C084A43F080531364064B1B6C03F029
:1026900080533B603B68072000F0F0FF00BF083725
:1026A000BD4680BD0038024080B58AB000AF78607A
:1026B00007F1140300221A605A609A60DA601A6106
:1026C0007B681B68174A934227D100233B61164B56
:1026D0005B6C154A43F480735364134B5B6C03F4D7
:1026E00080733B613B690023FB600F4B1B6B0E4A01
:1026F00043F0010313630C4B1B6B03F00103FB60FE
:10270000FB68C0237B610323BB610023FB6107F1EE
:1027100014031946054801F085F800BF2837BD4667
:1027200080BD00BF00200140003802400000024090
:1027300080B584B000AF78607B681B68B3F1804FD0
:102740000ED10023FB60164B1B6C154A43F00103AE
:102750001364134B1B6C03F00103FB60FB681AE06E
:102760007B681B680F4A934215D10023BB600C4B5A
:102770005B6C0B4A43F400335364094B5B6C03F40A
:102780000033BB60BB6800220021192000F081FFEC
:10279000192000F09AFF00BF1037BD4680BD00BF72
:1027A000003802400044014080B485B000AF78603A
:1027B0007B681B680B4A93420DD10023FB600A4BD8
:1027C0001B6C094A43F004031364074B1B6C03F0B2
:1027D0000403FB60FB6800BF1437BD465DF8047B53
:1027E000704700BF000800400038024080B588B044
:1027F00000AF786007F10C0300221A605A609A60FB
:10280000DA601A617B681B68124A93421DD100236B
:10281000BB60114B1B6B104A43F0020313630E4B5A
:102820001B6B03F00203BB60BB688023FB600223C9
:102830003B6100237B610023BB610223FB6107F145
:102840000C031946054800F0EDFF00BF2037BD46D8
:1028500080BD00BF00080040003802400004024074
:1028600080B58CB000AF786007F11C0300221A60BD
:102870005A609A60DA601A617B681B68364A934234
:102880002CD10023BB61354B1B6C344A43F400331D
:102890001364324B1B6C03F40033BB61BB69002330
:1028A0007B612E4B1B6B2D4A43F0010313632B4BB3
:1028B0001B6B03F001037B617B690C23FB6102232B
:1028C0003B6200237B620023BB620723FB6207F1AC
:1028D0001C031946224800F0A5FF38E07B681B68FE
:1028E000204A934233D100233B611C4B5B6C1B4A53
:1028F00043F020035364194B5B6C03F020033B61EE
:102900003B690023FB60154B1B6B144A43F0040327
:102910001363124B1B6B03F00403FB60FB68C023C3
:10292000FB6102233B6200237B620323BB6208231B
:10293000FB6207F11C0319460B4800F073FF0022ED
:102940000021472000F0A5FE472000F0BEFE00BF9A
:102950003037BD4680BD00BF004400400038024013
:1029600000000240001401400008024080B400AFA3
:10297000FEE780B400AFFEE780B400AFFEE780B4AE
:1029800000AFFEE780B400AFFEE780B400AF00BF49
:10299000BD465DF8047B704780B400AF00BFBD4604
:1029A0005DF8047B704780B400AF00BFBD465DF8A2
:1029B000047B704780B500AF00F06AF900BF80BDAE
:1029C00080B500AF024801F0CCFE00BF80BD00BF63
:1029D0004403002080B500AF024802F04FFD00BF65
:1029E00080BD00BFD403002080B400AF012318468F
:1029F000BD465DF8047B704780B582B000AF78605B
:102A0000396003F0F3FB034616221A604FF0FF33E0
:102A100018460837BD4680BD80B582B000AF7860EB
:102A20004FF0FF317868FFF7E7FFFEE780B586B02B
:102A300000AFF860B9607A6000237B610AE0AFF311
:102A400000800146BB685A1CBA60CAB21A707B6922
:102A500001337B617A697B689A42F0DB7B681846B8
:102A60001837BD4680BD80B586B000AFF860B9604C
:102A70007A6000237B6109E0BB685A1CBA601B784E
:102A80001846AFF300807B6901337B617A697B680C
:102A90009A42F1DB7B6818461837BD4680BD80B48A
:102AA00083B000AF78604FF0FF3318460C37BD4657
:102AB0005DF8047B704780B483B000AF7860396004
:102AC0003B684FF400525A60002318460C37BD464D
:102AD0005DF8047B704780B483B000AF7860012359
:102AE00018460C37BD465DF8047B704780B485B04E
:102AF00000AFF860B9607A60002318461437BD460D
:102B00005DF8047B7047000080B586B000AF786048
:102B1000144A154BD31A7B617B693B61134B1B68CD
:102B2000002B02D1114B124A1A60104B1A687B68B5
:102B300013443A699A4207D203F058FB03460C2229
:102B40001A604FF0FF3309E0084B1B68FB60074B2E
:102B50001A687B681344054A1360FB6818461837E7
:102B6000BD4680BD0080012000040000F00200206E
:102B7000B804002080B400AF064BD3F88830054A73
:102B800043F47003C2F8883000BFBD465DF8047B93
:102B9000704700BF00ED00E0DFF834D00D480E496B
:102BA0000E4A002302E0D458C4500433C4188C42A7
:102BB000F9D30B4A0B4C002301E013600432A2420C
:102BC000FBD3FFF7D7FF03F017FBFEF7CDFF7047EE
:102BD00000800120000000200002002064B90008ED
:102BE00000020020B8040020FEE7000080B500AF1E
:102BF0000E4B1B680D4A43F4007313600B4B1B68AC
:102C00000A4A43F480631360084B1B68074A43F485
:102C100080731360032000F031FD002000F008F8FD
:102C2000FFF71AFD0023184680BD00BF003C02409C
:102C300080B582B000AF7860124B1A68124B1B78D7
:102C400019464FF47A73B3FBF1F3B2FBF3F3184672
:102C500000F049FD0346002B01D001230EE07B6804
:102C60000F2B0AD8002279684FF0FF3000F011FDD9
:102C7000064A7B681360002300E0012318460837EA
:102C8000BD4680BD20000020280000202400002038
:102C900080B400AF064B1B781A46064B1B681344E2
:102CA000044A136000BFBD465DF8047B704700BF57
:102CB00028000020A404002080B400AF034B1B6850
:102CC0001846BD465DF8047B704700BFA404002091
:102CD00080B584B000AF7860FFF7EEFFB8607B6826
:102CE000FB60FB68B3F1FF3F05D00A4B1B781A4627
:102CF000FB681344FB6000BFFFF7DEFF0246BB68C2
:102D0000D31AFA689A42F7D800BF00BF1037BD4601
:102D100080BD00BF2800002080B584B000AF78607F
:102D20000023FB737B68002B01D1012333E07B6818
:102D30001B6C002B09D17868FFF7B6FC7B6800227A
:102D40005A647B68002283F83C207B681B6C03F08C
:102D50001003002B18D17B681B6C23F4885323F0DD
:102D6000020343F002027B681A64786800F0BAFA42
:102D70007B6800225A647B681B6C23F0030343F0DA
:102D800001027B681A6401E00123FB737B68002267
:102D900083F83C20FB7B18461037BD4680BD000001
:102DA00080B485B000AF78600023BB607B6893F887
:102DB0003C30012B01D1022397E07B68012283F88C
:102DC0003C207B681B689B6803F00103012B18D033
:102DD0007B681B689A687B681B6842F001029A60F6
:102DE000454B1B68454AA2FB03239A0C13465B0024
:102DF0001344BB6002E0BB68013BBB60BB68002BB7
:102E0000F9D17B681B689B6803F00103012B5FD13C
:102E10007B681B6C23F4E06323F0010343F48072AE
:102E20007B681A647B681B685B6803F48063002B13
:102E300007D07B681B6C23F4405343F480527B68BB
:102E40001A647B681B6C03F48053B3F5805F06D172
:102E50007B685B6C23F006027B685A6402E07B6847
:102E600000225A647B68002283F83C20244BFB60DC
:102E70007B681B686FF022021A60FB685B6803F0D6
:102E80001F03002B0FD17B681B689B6803F0405326
:102E9000002B29D17B681B689A687B681B6842F00D
:102EA00080429A6020E07B681B68164A93421BD1DF
:102EB0007B681B689B6803F04053002B14D17B6830
:102EC0001B689A687B681B6842F080429A600BE03E
:102ED0007B681B6C43F010027B681A647B685B6C38
:102EE00043F001027B685A64002318461437BD463C
:102EF0005DF8047B704700BF2000002083DE1B4389
:102F0000002301400020014080B483B000AF78600E
:102F10007B6893F83C30012B01D1022321E07B68D0
:102F2000012283F83C207B681B689A687B681B68D9
:102F300022F001029A607B681B689B6803F0010322
:102F4000002B09D17B681B6C23F4885323F0010309
:102F500043F001027B681A647B68002283F83C20FE
:102F6000002318460C37BD465DF8047B704780B5DA
:102F700084B000AF786039600023FB607B681B6819
:102F80009B6803F48063B3F5806F13D17B681B6883
:102F90009B6803F48073B3F5807F0BD17B681B6C57
:102FA00043F020027B681A647B68002283F83C208F
:102FB000012363E0FFF780FEF86021E03B68B3F196
:102FC000FF3F1DD03B68002B07D0FFF775FE024680
:102FD000FB68D31A3A689A4212D27B681B681B6856
:102FE00003F00203022B0BD07B681B6C43F004023E
:102FF0007B681A647B68002283F83C2003233DE051
:103000007B681B681B6803F00203022BD6D17B6828
:103010001B686FF012021A607B681B6C43F400722D
:103020007B681A647B681B689B6803F04053002B25
:1030300023D17B681B7E002B1FD17B681B68DB6A5A
:1030400003F47003002B06D07B681B689B6803F4B5
:103050008063002B11D17B681B6C23F480727B682A
:103060001A647B681B6C03F48053002B05D17B68CA
:103070001B6C43F001027B681A640023184610376A
:10308000BD4680BD80B483B000AF78607B681B68AC
:10309000DB6C18460C37BD465DF8047B70470000BA
:1030A00080B485B000AF786039600023BB607B6876
:1030B00093F83C30012B01D1022305E17B6801220A
:1030C00083F83C203B681B68092B25D97B681B686B
:1030D000D9683B681B689BB21A4613465B001344D1
:1030E0001E3B072202FA03F3DA437B681B680A409F
:1030F000DA607B681B68D9683B689A683B681B6824
:103100009BB2184603465B0003441E3B9A407B6813
:103110001B680A43DA6022E07B681B6819693B6818
:103120001B689BB21A4613465B001344072202FA3F
:1031300003F3DA437B681B680A401A617B681B68EB
:1031400019693B689A683B681B689BB2184603463E
:103150005B0003449A407B681B680A431A613B6822
:103160005B68062B24D87B681B68596B3B685A68E0
:1031700013469B001344053B1F2202FA03F3DA4374
:103180007B681B680A405A637B681B68596B3B6805
:103190001B689BB218463B685A6813469B00134451
:1031A000053B00FA03F27B681B680A435A634CE054
:1031B0003B685B680C2B24D87B681B68196B3B68E9
:1031C0005A6813469B001344233B1F2202FA03F361
:1031D000DA437B681B680A401A637B681B68196BBB
:1031E0003B681B689BB218463B685A6813469B00B5
:1031F0001344233B00FA03F27B681B680A431A63FB
:1032000023E07B681B68D96A3B685A6813469B00B9
:103210001344413B1F2202FA03F3DA437B681B6825
:103220000A40DA627B681B68D96A3B681B689BB2FC
:1032300018463B685A6813469B001344413B00FA0A
:1032400003F27B681B680A43DA62224BFB607B68EF
:103250001B68214A934209D13B681B68122B05D198
:10326000FB685B6843F48002FB685A607B681B68FC
:10327000194A934223D13B681B68102B03D03B684B
:103280001B68112B1BD1FB685B6843F40002FB68D1
:103290005A603B681B68102B11D1104B1B68104AF9
:1032A000A2FB03239A0C13469B0013445B00BB60F4
:1032B00002E0BB68013BBB60BB68002BF9D17B68B7
:1032C000002283F83C20002318461437BD465DF8E1
:1032D000047B7047002301400020014020000020B3
:1032E00083DE1B4380B485B000AF7860794BFB6010
:1032F000FB685B6823F44032FB685A60FB685A68DD
:103300007B685B681A43FB685A607B681B685A6875
:103310007B681B6822F480725A607B681B6859685E
:103320007B681B691A027B681B680A435A607B68CA
:103330001B685A687B681B6822F040725A607B6881
:103340001B6859687B689A687B681B680A435A60E7
:103350007B681B689A687B681B6822F400629A602D
:103360007B681B6899687B68DA687B681B680A431E
:103370009A607B689B6A584A934222D07B681B689C
:103380009A687B681B6822F070629A607B681B6891
:1033900099687B689A6A7B681B680A439A607B68B5
:1033A0001B689A687B681B6822F040529A607B68B1
:1033B0001B6899687B68DA6A7B681B680A439A60B5
:1033C0000FE07B681B689A687B681B6822F070625C
:1033D0009A607B681B689A687B681B6822F0405281
:1033E0009A607B681B689A687B681B6822F00202FF
:1033F0009A607B681B6899687B681B7E5A007B68B3
:103400001B680A439A607B6893F82030002B1BD01E
:103410007B681B685A687B681B6842F400625A60CC
:103420007B681B685A687B681B6822F460425A609C
:103430007B681B6859687B685B6A013B5A037B6841
:103440001B680A435A6007E07B681B685A687B6800
:103450001B6822F400625A607B681B68DA6A7B682A
:103460001B6822F47002DA627B681B68D96A7B6889
:10347000DB69013B1A057B681B680A43DA627B68DB
:103480001B689A687B681B6822F400729A607B68EC
:103490001B6899687B6893F830305A027B681B6818
:1034A0000A439A607B681B689A687B681B6822F4F1
:1034B00080629A607B681B6899687B685B699A0286
:1034C0007B681B680A439A6000BF1437BD465DF8ED
:1034D000047B7047002301400100000F80B485B0D9
:1034E00000AF78607B6803F00703FB600C4BDB6880
:1034F000BB60BA684FF6FF031340BB60FB681A025B
:10350000BB68134343F0BF6343F40033BB60044A1A
:10351000BB68D36000BF1437BD465DF8047B7047BD
:1035200000ED00E080B400AF044BDB681B0A03F041
:1035300007031846BD465DF8047B704700ED00E0C8
:1035400080B483B000AF0346FB7197F90730002BBE
:103550000BDBFB7903F01F02074997F907305B0982
:10356000012000FA02F241F8232000BF0C37BD46CB
:103570005DF8047B704700BF00E100E080B483B0D9
:1035800000AF03463960FB7197F90730002B0ADB67
:103590003B68DAB20C4997F907301201D2B20B44FA
:1035A00083F800230AE03B68DAB20849FB7903F0AC
:1035B0000F03043B1201D2B20B441A7600BF0C3742
:1035C000BD465DF8047B704700E100E000ED00E0DF
:1035D00080B489B000AFF860B9607A60FB6803F02E
:1035E0000703FB61FB69C3F10703042B28BF042316
:1035F000BB61FB690433062B02D9FB69033B00E086
:1036000000237B614FF0FF32BB6902FA03F3DA4318
:10361000BB681A407B699A404FF0FF317B6901FA21
:1036200003F3D9437B680B40134318462437BD4648
:103630005DF8047B7047000080B582B000AF786011
:103640007B68013BB3F1807F01D301230FE00A4A7D
:103650007B68013B53600F214FF0FF30FFF78EFF77
:10366000054B00229A60044B07221A60002318467B
:103670000837BD4680BD00BF10E000E080B582B0D5
:1036800000AF78607868FFF729FF00BF0837BD46B4
:1036900080BD80B586B000AF0346B9607A60FB7329
:1036A00000237B61FFF73EFF78617A68B96878692B
:1036B000FFF78EFF024697F90F3011461846FFF7C5
:1036C0005DFF00BF1837BD4680BD80B582B000AF3A
:1036D0000346FB7197F907301846FFF731FF00BF2B
:1036E0000837BD4680BD80B582B000AF786078688D
:1036F000FFF7A2FF034618460837BD4680BD80B5D8
:1037000084B000AF78607B689B6DFB60FFF7D4FAF4
:10371000B8607B6893F83530DBB2022B08D07B6849
:1037200080225A657B68002283F83420012352E00E
:103730007B681B681A687B681B6822F016021A6097
:103740007B681B685A697B681B6822F080025A619B
:103750007B681B6C002B03D17B689B6C002B07D014
:103760007B681B681A687B681B6822F008021A6075
:103770007B681B681A687B681B6822F001021A606C
:1037800013E0FFF799FA0246BB68D31A052B0CD950
:103790007B6820225A657B68032283F835207B688A
:1037A000002283F83420032315E07B681B681B6824
:1037B00003F00103002BE4D17B68DB6D3F229A40CC
:1037C000FB689A607B68012283F835207B680022C1
:1037D00083F83420002318461037BD4680BD80B4DE
:1037E00083B000AF78607B6893F83530DBB2022B92
:1037F00004D07B6880225A6501230CE07B68052297
:1038000083F835207B681B681A687B681B6822F088
:1038100001021A60002318460C37BD465DF8047B90
:103820007047000080B489B000AF78603960002331
:103830007B6100233B610023BB610023FB6159E1F5
:103840000122FB6902FA03F37B613B681B687A691A
:1038500013403B613A697B699A4240F048813B687A
:103860005B6803F00303012B05D03B685B6803F042
:103870000303022B30D17B689B68BB61FB695B0053
:10388000032202FA03F3DB43BA691340BB613B68CE
:10389000DA68FB695B0002FA03F3BA691343BB61A0
:1038A0007B68BA699A607B685B68BB610122FB69CF
:1038B00002FA03F3DB43BA691340BB613B685B6800
:1038C0001B0903F00102FB6902FA03F3BA6913430F
:1038D000BB617B68BA695A603B685B6803F00303AD
:1038E000032B17D07B68DB68BB61FB695B0003229D
:1038F00002FA03F3DB43BA691340BB613B689A6881
:10390000FB695B0002FA03F3BA691343BB617B688E
:10391000BA69DA603B685B6803F00303022B23D1CA
:10392000FB69DA087B68083253F82230BB61FB6917
:1039300003F007039B000F2202FA03F3DB43BA698B
:103940001340BB613B681A69FB6903F007039B00E6
:1039500002FA03F3BA691343BB61FB69DA087B68B7
:103960000832B96943F822107B681B68BB61FB69A8
:103970005B00032202FA03F3DB43BA691340BB6125
:103980003B685B6803F00302FB695B0002FA03F328
:10399000BA691343BB617B68BA691A603B685B68AC
:1039A00003F44033002B00F0A2800023FB60574B50
:1039B0005B6C564A43F480435364544B5B6C03F492
:1039C0008043FB60FB68524AFB699B08023352F854
:1039D0002330BB61FB6903F003039B000F2202FA53
:1039E00003F3DB43BA691340BB617B68494A9342E6
:1039F00019D07B68484A934213D07B68474A934268
:103A00000DD07B68464A934207D07B68454A934273
:103A100001D1042308E0072306E0032304E0022386
:103A200002E0012300E00023FA6902F003029200A1
:103A30009340BA691343BB613549FB699B08023364
:103A4000BA6941F82320384B1B68BB613B69DB43F3
:103A5000BA691340BB613B685B6803F48033002B99
:103A600003D0BA693B691343BB612F4ABB6913603A
:103A70002D4B5B68BB613B69DB43BA691340BB619B
:103A80003B685B6803F40033002B03D0BA693B69E1
:103A90001343BB61244ABB695360234B9B68BB61E2
:103AA0003B69DB43BA691340BB613B685B6803F465
:103AB0008013002B03D0BA693B691343BB611A4AD8
:103AC000BB699360184BDB68BB613B69DB43BA6938
:103AD0001340BB613B685B6803F40013002B03D009
:103AE000BA693B691343BB610F4ABB69D360FB6989
:103AF0000133FB61FB690F2B7FF6A2AE00BF00BF55
:103B00002437BD465DF8047B704700BF0038024093
:103B1000003801400000024000040240000802405A
:103B2000000C024000100240003C014080B485B00F
:103B300000AF78600B467B807B681A697B881340F6
:103B4000002B02D00123FB7301E00023FB73FB7BFE
:103B500018461437BD465DF8047B704780B483B0C7
:103B600000AF78600B467B8013467B707B78002B20
:103B700003D07A887B689A6103E07B881A047B68AB
:103B80009A6100BF0C37BD465DF8047B704780B476
:103B900085B000AF78600B467B807B685B69FB601B
:103BA0007A88FB6813401A04FB68D9437B880B4072
:103BB0001A437B689A6100BF1437BD465DF8047BE9
:103BC0007047000080B586B000AF78607B68002B3E
:103BD00001D1012364E27B681B6803F00103002B21
:103BE00075D0A34B9B6803F00C03042B0CD0A04BA7
:103BF0009B6803F00C03082B12D19D4B5B6803F408
:103C00008003B3F5800F0BD1994B1B6803F400338D
:103C1000002B5BD07B685B68002B57D101233FE210
:103C20007B685B68B3F5803F06D1914B1B68904A77
:103C300043F4803313601DE07B685B68B3F5A02F0D
:103C40000CD18B4B1B688A4A43F480231360884B4A
:103C50001B68874A43F4803313600BE0844B1B6876
:103C6000834A23F480331360814B1B68804A23F41A
:103C7000802313607B685B68002B13D0FFF71CF870
:103C8000386108E0FFF718F802463B69D31A642B45
:103C900001D9032304E2764B1B6803F40033002BA5
:103CA000F0D014E0FFF708F8386108E0FFF704F8F7
:103CB00002463B69D31A642B01D90323F0E16C4B14
:103CC0001B6803F40033002BF0D100E000BF7B68D9
:103CD0001B6803F00203002B63D0654B9B6803F065
:103CE0000C03002B0BD0624B9B6803F00C03082BDA
:103CF0001CD15F4B5B6803F48003002B16D15C4B37
:103D00001B6803F00203002B05D07B68DB68012BE6
:103D100001D00123C4E1564B1B6823F0F8027B68F5
:103D20001B69DB00524913430B603AE07B68DB6898
:103D3000002B20D04F4B01221A60FEF7BDFF3861E7
:103D400008E0FEF7B9FF02463B69D31A022B01D9FE
:103D50000323A5E1464B1B6803F00203002BF0D0C0
:103D6000434B1B6823F0F8027B681B69DB0040496A
:103D700013430B6015E03F4B00221A60FEF79CFFD7
:103D8000386108E0FEF798FF02463B69D31A022B20
:103D900001D9032384E1364B1B6803F00203002B97
:103DA000F0D17B681B6803F00803002B30D07B68E0
:103DB0005B69002B16D0304B01221A60FEF77CFFA6
:103DC000386108E0FEF778FF02463B69D31A022B00
:103DD00001D9032364E1264B5B6F03F00203002B40
:103DE000F0D015E0244B00221A60FEF765FF386121
:103DF00008E0FEF761FF02463B69D31A022B01D9A6
:103E000003234DE11A4B5B6F03F00203002BF0D14B
:103E10007B681B6803F00403002B00F0A0800023E4
:103E2000FB75134B1B6C03F08053002B0FD1002349
:103E3000BB600F4B1B6C0E4A43F0805313640C4B5A
:103E40001B6C03F08053BB60BB680123FB750B4BFD
:103E50001B6803F48073002B21D1084B1B68074AB1
:103E600043F480731360FEF727FF386111E000BF51
:103E70000038024000004742800E47420070004078
:103E8000FEF71AFF02463B69D31A022B01D903231E
:103E900006E1854B1B6803F48073002BF0D07B6830
:103EA0009B68012B06D1814B1B6F804A43F00103B5
:103EB00013671CE07B689B68052B0CD17B4B1B6F49
:103EC0007A4A43F004031367784B1B6F774A43F039
:103ED000010313670BE0754B1B6F744A23F001035A
:103EE0001367724B1B6F714A23F0040313677B68DF
:103EF0009B68002B15D0FEF7DFFE38610AE0FEF765
:103F0000DBFE02463B69D31A41F28832934201D963
:103F10000323C5E0654B1B6F03F00203002BEED0BB
:103F200014E0FEF7C9FE38610AE0FEF7C5FE02465E
:103F30003B69D31A41F28832934201D90323AFE09F
:103F40005A4B1B6F03F00203002BEED1FB7D012BBC
:103F500005D1564B1B6C554A23F0805313647B6884
:103F60009B69002B00F09B80504B9B6803F00C0377
:103F7000082B5CD07B689B69022B41D14C4B002203
:103F80001A60FEF799FE386108E0FEF795FE0246DA
:103F90003B69D31A022B01D9032381E0434B1B68F1
:103FA00003F00073002BF0D17B68DA697B681B6A31
:103FB0001A437B685B6A9B011A437B689B6A5B08B8
:103FC000013B1B041A437B68DB6A1B06374913431A
:103FD0004B60374B01221A60FEF76EFE386108E035
:103FE000FEF76AFE02463B69D31A022B01D903236E
:103FF00056E02E4B1B6803F00073002BF0D04EE010
:104000002B4B00221A60FEF757FE386108E0FEF7DE
:1040100053FE02463B69D31A022B01D903233FE02A
:10402000224B1B6803F00073002BF0D137E07B6854
:104030009B69012B01D1012332E01C4B5B68FB60C3
:104040007B689B69012B28D0FB6803F480027B68A6
:10405000DB699A4221D1FB6803F03F027B681B6A4F
:104060009A421AD1FA6847F6C07313407A68526AC6
:104070009201934211D1FB6803F440327B689B6A42
:104080005B08013B1B049A4207D1FB6803F0706296
:104090007B68DB6A1B069A4201D0012300E0002303
:1040A00018461837BD4680BD0070004000380240F9
:1040B0006000474280B584B000AF786039607B68AB
:1040C000002B01D10123CCE0684B1B6803F00703F0
:1040D0003A689A420CD9654B3A68D2B21A70634B6F
:1040E0001B6803F007033A689A4201D00123B8E045
:1040F0007B681B6803F00203002B20D07B681B68E1
:1041000003F00403002B05D0594B9B68584A43F435
:10411000E05393607B681B6803F00803002B05D015
:10412000534B9B68524A43F460439360504B9B68E7
:1041300023F0F0027B689B684D4913438B607B68DA
:104140001B6803F00103002B44D07B685B68012BE4
:1041500007D1474B1B6803F40033002B19D101230F
:104160007FE07B685B68022B03D07B685B68032B76
:1041700007D13F4B1B6803F00073002B09D10123CB
:104180006FE03B4B1B6803F00203002B01D10123BE
:1041900067E0374B9B6823F003027B685B68344918
:1041A00013438B60FEF788FDF8600AE0FEF784FD9C
:1041B0000246FB68D31A41F28832934201D90323A5
:1041C0004FE02B4B9B6803F00C027B685B689B0005
:1041D0009A42EBD1254B1B6803F007033A689A42D9
:1041E0000CD2224B3A68D2B21A70204B1B6803F0F3
:1041F00007033A689A4201D0012332E07B681B68CA
:1042000003F00403002B08D0194B9B6823F4E05201
:104210007B68DB68164913438B607B681B6803F07F
:104220000803002B09D0124B9B6823F460427B6883
:104230001B69DB000E4913438B6000F021F8024636
:104240000B4B9B681B0903F00F030A49CB5C22FA56
:1042500003F3094A1360094B1B681846FEF7E8FC94
:10426000002318461037BD4680BD00BF003C024009
:104270000038024074B40008200000202400002010
:104280002DE9B04384B000AF00237B600023FB60C6
:1042900000233B600023BB60674B9B6803F00C036B
:1042A000082B0DD0082B00F2BD80002B02D0042B70
:1042B00003D0B7E0614BBB60B7E0614BBB60B4E0DB
:1042C0005D4B5B6803F03F037B605B4B5B6803F413
:1042D0008003002B4DD0584B5B689B091A464FF06A
:1042E000000340F2FF104FF0000102EA000803EA69
:1042F0000109404649464FF000024FF000034B01D0
:1043000043EAD063420110461946B0EB080061EB66
:1043100009014FF000024FF000038B0143EA906364
:104320008201121A63EB01034FF000004FF000010D
:10433000D90041EA5271D00002460B4612EB080246
:1043400043EB09034FF000004FF00001590241EA2E
:10435000D251500202460B46104619467B681A4657
:104360004FF00003FCF7A8FC02460B461346FB6027
:104370004AE0314B5B689B091A464FF0000340F25C
:10438000FF104FF0000102EA000403EA0105204695
:1043900029464FF000024FF000034B0143EAD0637F
:1043A000420110461946001B61EB05014FF0000267
:1043B0004FF000038B0143EA90638201121A63EB12
:1043C00001034FF000004FF00001D90041EA5271A3
:1043D000D00002460B46121945EB03034FF00000D4
:1043E0004FF00001990241EA9251900202460B46B9
:1043F000104619467B681A464FF00003FCF75CFC38
:1044000002460B461346FB600B4B5B681B0C03F02C
:10441000030301335B003B60FA683B68B2FBF3F3D4
:10442000BB6002E0054BBB6000BFBB68184610379D
:10443000BD46BDE8B08300BF003802400024F40050
:1044400000127A0080B400AF034B1B681846BD46CB
:104450005DF8047B704700BF2000002080B500AFEE
:10446000FFF7F0FF0246054B9B689B0A03F007032A
:104470000349CB5C22FA03F3184680BD00380240A2
:1044800084B4000880B500AFFFF7DCFF0246054B9F
:104490009B685B0B03F007030349CB5C22FA03F331
:1044A000184680BD0038024084B4000880B582B050
:1044B00000AF78607B68002B01D1012341E07B686D
:1044C00093F83D30DBB2002B06D17B68002283F8E5
:1044D0003C207868FEF72CF97B68022283F83D20A7
:1044E0007B681A687B6804331946104600F08EFB1F
:1044F0007B68012283F846207B68012283F83E20F6
:104500007B68012283F83F207B68012283F84020EA
:104510007B68012283F841207B68012283F84220D6
:104520007B68012283F843207B68012283F84420C2
:104530007B68012283F845207B68012283F83D20B7
:10454000002318460837BD4680BD000080B485B002
:1045500000AF78607B6893F83D30DBB2012B01D06F
:1045600001233CE07B68022283F83D207B681B68C6
:104570001E4A934218D07B681B68B3F1804F13D05A
:104580007B681B681A4A93420ED07B681B68194AE5
:10459000934209D07B681B68174A934204D07B681A
:1045A0001B68164A934211D17B681B689B6803F015
:1045B0000703FB60FB68062B10D07B681B681A683A
:1045C0007B681B6842F001021A6007E07B681B6889
:1045D0001A687B681B6842F001021A6000231846C3
:1045E0001437BD465DF8047B704700BF00000140F2
:1045F0000004004000080040000C00400040014062
:1046000080B485B000AF78607B6893F83D30DBB252
:10461000012B01D0012344E07B68022283F83D2076
:104620007B681B68DA687B681B6842F00102DA600D
:104630007B681B681E4A934218D07B681B68B3F1E5
:10464000804F13D07B681B681A4A93420ED07B6858
:104650001B68194A934209D07B681B68174A93422A
:1046600004D07B681B68164A934211D17B681B6893
:104670009B6803F00703FB60FB68062B10D07B6888
:104680001B681A687B681B6842F001021A6007E029
:104690007B681B681A687B681B6842F001021A601D
:1046A000002318461437BD465DF8047B704700BFF1
:1046B000000001400004004000080040000C0040E1
:1046C0000040014080B582B000AF78607B68002B6D
:1046D00001D1012341E07B6893F83D30DBB2002B30
:1046E00006D17B68002283F83C207868FEF75CF8EE
:1046F0007B68022283F83D207B681A687B6804335C
:104700001946104600F082FA7B68012283F84620A1
:104710007B68012283F83E207B68012283F83F20DA
:104720007B68012283F840207B68012283F84120C6
:104730007B68012283F842207B68012283F84320B2
:104740007B68012283F844207B68012283F845209E
:104750007B68012283F83D20002318460837BD46B8
:1047600080BD80B582B000AF78607B681B681B6934
:1047700003F00203022B22D17B681B68DB6803F085
:104780000203022B1BD17B681B686FF002021A61C7
:104790007B6801221A777B681B689B6903F003031F
:1047A000002B03D0786800F012FA05E0786800F07A
:1047B00004FA786800F015FA7B6800221A777B68A3
:1047C0001B681B6903F00403042B22D17B681B6860
:1047D000DB6803F00403042B1BD17B681B686FF0BC
:1047E00004021A617B6802221A777B681B689B6946
:1047F00003F44073002B03D0786800F0E8F905E07B
:10480000786800F0DAF9786800F0EBF97B6800224C
:104810001A777B681B681B6903F00803082B22D1F9
:104820007B681B68DB6803F00803082B1BD17B68DF
:104830001B686FF008021A617B6804221A777B6894
:104840001B68DB6903F00303002B03D0786800F0DA
:10485000BEF905E0786800F0B0F9786800F0C1F9B9
:104860007B6800221A777B681B681B6903F01003C2
:10487000102B22D17B681B68DB6803F01003102B20
:104880001BD17B681B686FF010021A617B680822DD
:104890001A777B681B68DB6903F44073002B03D035
:1048A000786800F094F905E0786800F086F9786897
:1048B00000F097F97B6800221A777B681B681B69F8
:1048C00003F00103012B0ED17B681B68DB6803F04A
:1048D0000103012B07D17B681B686FF001021A618D
:1048E0007868FDF771FE7B681B681B6903F0800325
:1048F000802B0ED17B681B68DB6803F08003802B64
:1049000007D17B681B686FF080021A61786800F03D
:104910009BFC7B681B681B6903F04003402B0ED196
:104920007B681B68DB6803F04003402B07D17B6882
:104930001B686FF040021A61786800F05CF97B68D0
:104940001B681B6903F02003202B0ED17B681B68BA
:10495000DB6803F02003202B07D17B681B686FF016
:1049600020021A61786800F065FC00BF0837BD4678
:1049700080BD000080B586B000AFF860B9607A6095
:104980000023FB75FB6893F83C30012B01D1022317
:1049900048E0FB68012283F83C207B680C2B39D867
:1049A00001A252F823F000BFDD490008154A0008B3
:1049B000154A0008154A0008EB490008154A000886
:1049C000154A0008154A0008F9490008154A000868
:1049D000154A0008154A0008074A0008FB681B68CA
:1049E000B968184600F092F917E0FB681B68B968CF
:1049F000184600F0F1F910E0FB681B68B96818462A
:104A000000F056FA09E0FB681B68B968184600F028
:104A1000B9FA02E00123FB7500BFFB68002283F8AE
:104A20003C20FB7D18461837BD4680BD80B584B05C
:104A300000AF786039600023FB737B6893F83C30EB
:104A4000012B01D10223B4E07B68012283F83C20D2
:104A50007B68022283F83D207B681B689B68BB60F3
:104A6000BB6823F07703BB60BB6823F47F43BB6064
:104A70007B681B68BA689A603B681B68B3F5005F87
:104A80003ED0B3F5005F00F28780B3F5805F00F0A1
:104A90008680B3F5805F7FD8702B1AD0702B7BD8BF
:104AA000602B50D0602B77D8502B3CD0502B73D834
:104AB000402B58D0402B6FD8302B64D0302B6BD884
:104AC000202B60D0202B67D8002B5CD0102B5AD025
:104AD00062E07B6818683B6899683B685A683B6885
:104AE000DB6800F019FB7B681B689B68BB60BB68D8
:104AF00043F07703BB607B681B68BA689A604FE03D
:104B00007B6818683B6899683B685A683B68DB6853
:104B100000F002FB7B681B689A687B681B6842F4A4
:104B200080429A603CE07B6818683B6859683B6843
:104B3000DB681A4600F076FA7B681B68502118463D
:104B400000F0CFFA2CE07B6818683B6859683B6836
:104B5000DB681A4600F095FA7B681B6860211846EE
:104B600000F0BFFA1CE07B6818683B6859683B6836
:104B7000DB681A4600F056FA7B681B68402118462D
:104B800000F0AFFA0CE07B681A683B681B681946B6
:104B9000104600F0A6FA03E00123FB7300E000BF1B
:104BA0007B68012283F83D207B68002283F83C204B
:104BB000FB7B18461037BD4680BD80B483B000AF84
:104BC000786000BF0C37BD465DF8047B704780B449
:104BD00083B000AF786000BF0C37BD465DF8047B42
:104BE000704780B483B000AF786000BF0C37BD461B
:104BF0005DF8047B704780B483B000AF786000BF7D
:104C00000C37BD465DF8047B7047000080B485B06A
:104C100000AF786039607B681B68FB607B68344A52
:104C200093420FD07B68B3F1804F0BD07B68314A41
:104C3000934207D07B68304A934203D07B682F4A67
:104C4000934208D1FB6823F07003FB603B685B680C
:104C5000FA681343FB607B68254A93421BD07B684C
:104C6000B3F1804F17D07B68224A934213D07B6800
:104C7000214A93420FD07B68204A93420BD07B6835
:104C80001F4A934207D07B681E4A934203D07B6839
:104C90001D4A934208D1FB6823F44073FB603B68D4
:104CA000DB68FA681343FB60FB6823F080023B6813
:104CB0005B691343FB607B68FA681A603B689A681B
:104CC0007B68DA623B681A687B689A627B68084A8C
:104CD000934203D13B681A697B681A637B6801229F
:104CE0005A6100BF1437BD465DF8047B704700BFB2
:104CF000000001400004004000080040000C00409B
:104D000000400140004401400048014080B487B0A9
:104D100000AF786039607B681B6A23F001027B6812
:104D20001A627B681B6A7B617B685B683B617B689E
:104D30009B69FB60FB6823F07003FB60FB6823F05A
:104D40000303FB603B681B68FA681343FB607B69E5
:104D500023F002037B613B689B687A6913437B61A4
:104D60007B681C4A93420CD17B6923F008037B616A
:104D70003B68DB687A6913437B617B6923F004033A
:104D80007B617B68134A934211D13B6923F48073A2
:104D90003B613B6923F400733B613B685B693A69A3
:104DA00013433B613B689B693A6913433B617B68F2
:104DB0003A695A607B68FA689A613B685A687B680E
:104DC0005A637B687A691A6200BF1C37BD465DF87A
:104DD000047B70470000014080B487B000AF78606A
:104DE00039607B681B6A23F010027B681A627B685B
:104DF0001B6A7B617B685B683B617B689B69FB60CE
:104E0000FB6823F4E043FB60FB6823F44073FB6022
:104E10003B681B681B02FA681343FB607B6923F045
:104E200020037B613B689B681B017A6913437B61AC
:104E30007B681E4A93420DD17B6923F080037B611E
:104E40003B68DB681B017A6913437B617B6923F054
:104E500040037B617B68154A934213D13B6923F47D
:104E600080633B613B6923F400633B613B685B69A2
:104E70009B003A6913433B613B689B699B003A691D
:104E800013433B617B683A695A607B68FA689A61B0
:104E90003B685A687B689A637B687A691A6200BFCC
:104EA0001C37BD465DF8047B704700BF0000014021
:104EB00080B487B000AF786039607B681B6A23F4E8
:104EC00080727B681A627B681B6A7B617B685B68A7
:104ED0003B617B68DB69FB60FB6823F07003FB6070
:104EE000FB6823F00303FB603B681B68FA6813430D
:104EF000FB607B6923F400737B613B689B681B024A
:104F00007A6913437B617B681D4A93420DD17B69AB
:104F100023F400637B613B68DB681B027A691343FF
:104F20007B617B6923F480637B617B68144A9342D5
:104F300013D13B6923F480533B613B6923F4005355
:104F40003B613B685B691B013A6913433B613B680A
:104F50009B691B013A6913433B617B683A695A605C
:104F60007B68FA68DA613B685A687B68DA637B6859
:104F70007A691A6200BF1C37BD465DF8047B704732
:104F80000000014080B487B000AF786039607B6872
:104F90001B6A23F480527B681A627B681B6A3B6140
:104FA0007B685B687B617B68DB69FB60FB6823F483
:104FB000E043FB60FB6823F44073FB603B681B68C5
:104FC0001B02FA681343FB603B6923F400533B6107
:104FD0003B689B681B033A6913433B617B68104A3B
:104FE000934209D17B6923F480437B613B685B6911
:104FF0009B017A6913437B617B687A695A607B689D
:10500000FA68DA613B685A687B681A647B683A69B7
:105010001A6200BF1C37BD465DF8047B704700BFB5
:105020000000014080B487B000AFF860B9607A60DA
:10503000FB681B6A7B61FB681B6A23F00102FB684B
:105040001A62FB689B693B613B6923F0F0033B619B
:105050007B681B013A6913433B617B6923F00A03B8
:105060007B617A69BB6813437B61FB683A699A612B
:10507000FB687A691A6200BF1C37BD465DF8047B85
:10508000704780B487B000AFF860B9607A60FB68A1
:105090001B6A23F01002FB681A62FB689B697B6144
:1050A000FB681B6A3B617B6923F470437B617B680F
:1050B0001B037A6913437B613B6923F0A0033B61C7
:1050C000BB681B013A6913433B61FB687A699A61CB
:1050D000FB683A691A6200BF1C37BD465DF8047B65
:1050E000704780B485B000AF786039607B689B689A
:1050F000FB60FB6823F07003FB603A68FB681343B6
:1051000043F00703FB607B68FA689A6000BF1437BE
:10511000BD465DF8047B704780B487B000AFF8608F
:10512000B9607A603B60FB689B687B617B6923F4B4
:105130007F437B613B681A027B681A43BB68134359
:105140007A6913437B61FB687A699A6000BF1C37F8
:10515000BD465DF8047B704780B485B000AF7860D1
:1051600039607B6893F83C30012B01D1022350E079
:105170007B68012283F83C207B68022283F83D2073
:105180007B681B685B68FB607B681B689B68BB6017
:10519000FB6823F07003FB603B681B68FA681343ED
:1051A000FB607B681B68FA685A607B681B681C4A56
:1051B000934218D07B681B68B3F1804F13D07B6893
:1051C0001B68184A93420ED07B681B68164A9342AC
:1051D00009D07B681B68154A934204D07B681B6822
:1051E000134A93420CD1BB6823F08003BB603B6839
:1051F0005B68BA681343BB607B681B68BA689A60D7
:105200007B68012283F83D207B68002283F83C20E4
:10521000002318461437BD465DF8047B704700BF75
:10522000000001400004004000080040000C004065
:105230000040014080B483B000AF786000BF0C37FD
:10524000BD465DF8047B704780B483B000AF7860E2
:1052500000BF0C37BD465DF8047B704780B582B057
:1052600000AF78607B68002B01D101233FE07B68B1
:1052700093F83D30DBB2002B06D17B68002283F827
:105280003C207868FDF7ECFA7B68242283F83D2007
:105290007B681B68DA687B681B6822F40052DA605E
:1052A000786800F0DBFD7B681B681A697B681B6807
:1052B00022F490421A617B681B685A697B681B68FC
:1052C00022F02A025A617B681B68DA687B681B68D7
:1052D00042F40052DA607B6800221A647B68202264
:1052E00083F83D207B68202283F83E200023184667
:1052F0000837BD4680BD80B58AB002AFF860B9609E
:105300003B601346FB8000237B61FB6893F83D30D4
:10531000DBB2202B7CD1BB68002B02D0FB88002B9A
:1053200001D1012375E0FB6893F83C30012B01D1DA
:1053300002236EE0FB68012283F83C20FB68002218
:105340001A64FB68212283F83D20FDF7B5FC7861E3
:10535000FB68FA889A84FB68FA88DA84FB689B68A1
:10536000B3F5805F08D1FB681B69002B04D10023D3
:10537000FB61BB68BB6103E0BB68FB610023BB61F1
:10538000FB68002283F83C202AE03B6800937B699D
:1053900000228021F86800F01FFB0346002B01D09B
:1053A000032336E0FB69002B0BD1BB691B881A462F
:1053B000FB681B68C2F308025A60BB690233BB6119
:1053C00007E0FB691A78FB681B685A60FB690133C8
:1053D000FB61FB68DB8C9BB2013B9AB2FB68DA8411
:1053E000FB68DB8C9BB2002BCFD13B6800937B69C1
:1053F00000224021F86800F0EFFA0346002B01D0AC
:10540000032306E0FB68202283F83D20002300E010
:10541000022318462037BD4680BD80B584B000AF5A
:10542000F860B9601346FB80FB6893F83E30DBB24E
:10543000202B1DD1BB68002B02D0FB88002B01D193
:10544000012316E0FB6893F83C30012B01D10223C5
:105450000FE0FB68012283F83C20FB6800221A63FE
:10546000FB881A46B968F86800F024FB034600E0A0
:10547000022318461037BD4680BD000080B5BAB083
:1054800000AF78607B681B681B68C7F8E4307B68F6
:105490001B68DB68C7F8E0307B681B685B69C7F88E
:1054A000DC300023C7F8D8300023C7F8D430D7F851
:1054B000E43003F00F03C7F8D830D7F8D830002B0A
:1054C0000FD1D7F8E43003F02003002B09D0D7F830
:1054D000E03003F02003002B03D0786800F003FCD9
:1054E00056E2D7F8D830002B00F0DE80D7F8DC3059
:1054F00003F00103002B06D1D7F8E03003F49073DA
:10550000002B00F0D180D7F8E43003F00103002B2A
:105510000BD0D7F8E03003F48073002B05D07B6804
:105520001B6C43F001027B681A64D7F8E43003F087
:105530000403002B0BD0D7F8DC3003F00103002B61
:1055400005D07B681B6C43F002027B681A64D7F8B5
:10555000E43003F00203002B0BD0D7F8DC3003F06B
:105560000103002B05D07B681B6C43F004027B68B1
:105570001A64D7F8E43003F00803002B11D0D7F8F1
:10558000E03003F02003002B05D1D7F8DC3003F026
:105590000103002B05D07B681B6C43F008027B687D
:1055A0001A647B681B6C002B00F0ED81D7F8E430A7
:1055B00003F02003002B08D0D7F8E03003F02003DD
:1055C000002B02D0786800F08EFB7B681B685B695B
:1055D00003F04003402B0CBF01230023DBB2C7F8CC
:1055E000D4307B681B6C03F00803002B03D1D7F881
:1055F000D430002B4FD0786800F096FA7B681B6897
:105600005B6903F04003402B41D17B681B68143376
:10561000C7F89C30D7F89C3053E8003FC7F8983063
:10562000D7F8983023F04003C7F8D0307B681B6868
:105630001433D7F8D020C7F8A820C7F8A430D7F87B
:10564000A410D7F8A82041E80023C7F8A030D7F865
:10565000A030002BD9D17B689B6B002B13D07B68CB
:105660009B6B7D4A1A657B689B6B1846FEF7B7F803
:105670000346002B16D07B689B6B1B6D7A68926B80
:10568000104698470EE0786800F090F90AE07868D4
:1056900000F08CF906E0786800F088F97B68002259
:1056A0001A6470E100BF6EE17B681B6B012B40F058
:1056B0004A81D7F8E43003F01003002B00F0438157
:1056C000D7F8E03003F01003002B00F03C810023FA
:1056D000BB607B681B681B68BB607B681B685B6882
:1056E000BB60BB687B681B685B6903F04003402BB1
:1056F00040F0B4807B689B6B1B685B68A7F8BE308A
:10570000B7F8BE30002B00F040817B689B8DB7F866
:10571000BE209A4280F039817B68B7F8BE20DA85D6
:105720007B689B6BDB69B3F5807F00F088807B68CA
:105730001B680C33C7F88830D7F8883053E8003F2F
:10574000C7F88430D7F8843023F48073C7F8B830B2
:105750007B681B680C33D7F8B820C7F89420C7F8CB
:105760009030D7F89010D7F8942041E80023C7F87C
:105770008C30D7F88C30002BD9D17B681B68143360
:105780007B677B6F53E8003F3B673B6F23F0010370
:10579000C7F8B4307B681B681433D7F8B420C7F857
:1057A0008020FB67F96FD7F8802041E80023BB67B2
:1057B000BB6F002BE1D17B681B6814333B663B6EEB
:1057C00053E8003FFB65FB6D23F04003C7F8B030A2
:1057D0007B681B681433D7F8B020FA66BB66B96ED5
:1057E000FA6E41E800237B667B6E002BE3D17B6879
:1057F000202283F83E207B6800221A637B681B68A6
:105800000C33FB64FB6C53E8003FBB64BB6C23F0C0
:105810001003C7F8AC307B681B680C33D7F8AC209A
:10582000BA657B65796DBA6D41E800233B653B6DD8
:10583000002BE3D17B689B6B1846FDF760FF7B680C
:105840009A8D7B68DB8D9BB2D31A9BB21946786820
:1058500000F0B6F899E000BFEF5B00087B689A8D16
:105860007B68DB8D9BB2D31AA7F8CE307B68DB8DCB
:105870009BB2002B00F08B80B7F8CE30002B00F0ED
:1058800086807B681B680C33BB63BB6B53E8003FAF
:105890007B637B6B23F49073C7F8C8307B681B680D
:1058A0000C33D7F8C8207A643B64396C7A6C41E8D1
:1058B0000023FB63FB6B002BE3D17B681B68143375
:1058C0007B627B6A53E8003F3B623B6A23F0010343
:1058D000C7F8C4307B681B681433D7F8C4203A6318
:1058E000FB62F96A3A6B41E80023BB62BB6A002B9A
:1058F000E3D17B68202283F83E207B6800221A6374
:105900007B681B680C333B613B6953E8003FFB60DD
:10591000FB6823F01003C7F8C0307B681B680C33AA
:10592000D7F8C020FA61BB61B969FA6941E8002380
:105930007B617B69002BE3D1B7F8CE3019467868DC
:1059400000F03EF823E0D7F8E43003F08003002BAA
:1059500009D0D7F8E03003F08003002B03D078683B
:1059600000F059F914E0D7F8E43003F04003002BBD
:105970000ED0D7F8E03003F04003002B08D0786851
:1059800000F099F904E000BF02E000BF00E000BFB2
:10599000E837BD4680BD00BF80B483B000AF7860FB
:1059A00000BF0C37BD465DF8047B704780B483B000
:1059B00000AF786000BF0C37BD465DF8047B7047D0
:1059C00080B483B000AF78600B467B8000BF0C379B
:1059D000BD465DF8047B704780B590B000AFF860BD
:1059E000B9603B601346FB7150E0BB6CB3F1FF3F05
:1059F0004CD0BB6C002B07D0FDF75EF902463B682C
:105A0000D31ABA6C9A4241D2FB681B680C33BB6252
:105A1000BB6A53E8003F7B627B6A23F4D073FB636D
:105A2000FB681B680C33FA6B7A633B63396B7A6BE8
:105A300041E80023FB62FB6A002BE5D1FB681B6891
:105A400014337B617B6953E8003F3B613B6923F082
:105A50000103BB63FB681B681433BA6B3A62FB61DA
:105A6000F9693A6A41E80023BB61BB69002BE5D1C3
:105A7000FB68202283F83D20FB68202283F83E202B
:105A8000FB68002283F83C2003230FE0FB681B68BF
:105A90001A68BB681340BA689A420CBF01230023FE
:105AA000DBB21A46FB799A429FD000231846403752
:105AB000BD4680BD80B485B000AFF860B9601346C4
:105AC000FB80FB68BA689A62FB68FA889A85FB6873
:105AD000FA88DA85FB6800221A64FB68222283F8C0
